:060000000C943E000C947C
:1000060080000C9400000C9400000C9400000C94EA
:1000160000000C9400000C9400000C94AD000C94AD
:1000260000000C9400000C94B9000C9400000C9491
:1000360000000C9400000C9400000C9400000C943A
:1000460000000C9400000C9400000C940000102793
:10005600E80364000A00010000100001100001001E
:10006600BD0000000000F00001006C016600060003
:10007600080068000000F894EE27ECBBF1E0FBBF37
:10008600EBBFE5BFF8E1F1BDE1BD8DE0A2E0BB2726
:10009600ED938A95E9F780E094E0A0E6ED93019769
:1000A600E9F7EEE6F0E085919591009761F0A5916C
:1000B600B59105901590BF01F00105900D9201973D
:1000C600E1F7FB01F0CFEFE5EDBFE4E0EEBFC0E600
:1000D600D1E00C944F01E881E7B98BE18A95F1F7FD
:1000E600369A349BFECF349AE4B1F5B104C05D9BD9
:1000F600FECFE881ECB9219608950A921A92FA92F7
:100106006A937A938A939A93AA93BA93EA93FA9301
:10011600EFB7EA93F50131965F01D501EAE0F0E029
:100126000E9449022F01D501EAE0F0E00E94730225
:100136000E94DC010E94E701E991EFBFF991E99184
:10014600B991A9919991899179916991F9901990AB
:1001560009901895EA93C09B02C0C09801C0C09A46
:10016600CDBCE0916C01ECBDE9911895EA93FA9348
:10017600EFB7EA931A931CB11A3739F4E0EFF0E0BF
:100186006F01EDEBF0E00E94F101183739F4E1EE72
:10019600F0E06F01EBE7F0E00E94F101163739F469
:1001A600E2EDF0E06F01E9E3F0E00E94F1011E36B6
:1001B60039F4E2ECF0E06F01E8EFF0E00E94F101C3
:1001C6001D3639F4E3EBF0E06F01E4EBF0E00E945A
:1001D600F101123739F4E4EAF0E06F01E2E7F0E00A
:1001E6000E94F101143739F4E5E9F0E06F01E0E32C
:1001F600F0E00E94F101153739F4E5E8F0E06F010F
:10020600EDEEF0E00E94F1011A3639F4E6E7F0E08F
:100216006F01EDEAF0E00E94F1011B3639F4E7E6E2
:10022600F0E06F01E9E6F0E00E94F101113309F414
:10023600A89A123309F4A99A133309F4AA9A143323
:1002460009F4AB9A153309F4AC9A163309F4AD9A4E
:10025600173309F4AE9A183309F4AF9A113609F434
:10026600A898123609F4A998133609F4AA981436F0
:1002760009F4AB98153609F4AC98163609F4AD981E
:10028600173609F4AE98183609F4AF981991E99122
:10029600EFBFF991E9911895E0E0EBBBEABBE8BB4B
:1002A600EFEFE7BBE0E0E5BBE4BBE2BBE1BBE3BFEE
:1002B600E2BFECBFEFBDE5E0EEBDCDBCE0916C0169
:1002C600ECBDE0E0E7BDE6BDEBBDEABDE9BDE8BDDE
:1002D600E2BDE5BDE4BDE3BDEBB7E064EBBFE2E044
:1002E600E5BFE0E0E4BFE0E4EABFE5E0EEBDE4E060
:1002F600E9BFE0E0EBB9E8E9EAB9E6E8E0BDE0E04D
:10030600E0BDE3E3E9B9E0E8E8B9E0E0E0BFE7B97A
:10031600E3E8E6B9E0E0EDB9E6BF7894E0E0EA9319
:10032600DADE66277727E0936001F0936101609338
:10033600620170936301A8E8B3E180E090E00E9457
:100346001602DF01CB01EFEFF3E060E070E00E9400
:100356004E02E0936801F093690160936A0170931D
:100366006B01A0916801B091690180916A01909139
:100376006B010E94F601E0936401F09365016093BE
:100386006601709367010E94FD010E94F6012F012C
:100396000E94FD01EAE0F0E060E070E00E94810268
:1003A6000E94DC01EAE0EA93A2DE0E94E701B6CFF2
:1003B600FFCF3F01E42DE05DEA930E947A00E62D2F
:1003C600E05DEA930C947A00EDE0EA930E947A00ED
:1003D600E8ECF0E0FA93EA930C940602E0936C01E1
:1003E600F0936D010895EAE0F0E060E070E00E94AD
:1003F6004E020895A0916401B09165018091660155
:10040600909167010895E991F991309639F080ED60
:1004160097E00197F1F7A8953197C9F70895F195F7
:10042600E195F04008957A9F702D6B9F700DF89FAF
:10043600700DE99F700D6A9F602D710DFB9F600D19
:10044600711DE89F600D711D8827FA9FF02D610DC3
:10045600781FEB9FF00D611D781FEA9FE02DF10DCF
:10046600681F781F08950024112490E1AA0FBB1F6E
:10047600001C111C0E1A1F0A18F40E0E1F1E01C0B6
:10048600A1609A9599F7FD01D00108953BD0EBDF65
:100496000EF4C5DF08953F934F935F930024112414
:1004A6004427552730E2AA0FBB1F881F991F001C3F
:1004B600111C441F551F0E1A1F0A460B570B28F412
:1004C6000E0E1F1E461F571F01C0A1603A9559F711
:1004D600FD01BC01D001CA015F914F913F91089582
:1004E600E894B7FF04C0A095B09511966894F7FDFF
:1004F60096DFB9DFFD010EF492DF0895CCDFFD0132
:10050600BC010895E894F7FF02C089DF6894B7FF3D
:1005160006C0A095B095119600F8039400FA0895C8
:00000001FF
